:020000040800F2
:10000000B0150020310200086D0200086F020008E0
:100010007102000873020008750200080000000069
:10002000000000000000000000000000770200084F
:1000300079020008000000007B0200080516000895
:100040007F0200087F0200087F0200087F0200088C
:100050007F0200087F0200087F0200087F0200087C
:100060007F0200087F0200087F0200087F0200086C
:100070007F0200087F0200087F0200087F0200085C
:100080007F0200087F0200087F0200087F0200084C
:100090007F0200087F0200087F0200087F0200083C
:1000A0007F0200087F0200087F0200087F0200082C
:1000B0007F0200087F0200087F0200087F0200081C
:1000C0007F0200087F0200087F0200087F0200080C
:1000D0007F0200087F0200087F0200087F020008FC
:1000E0007F0200087F0200087F0200087F020008EC
:1000F0007F0200087F0200087F0200087F020008DC
:100100007F0200087F0200087F0200087F020008CB
:100110007F0200087F0200087F0200087F020008BB
:100120007F0200087F0200087F0200087F020008AB
:100130007F0200087F0200087F0200087F0200089B
:100140007F0200087F0200087F0200087F0200088B
:100150007F0200087F0200087F0200087F0200087B
:100160007F0200087F0200087F0200087F0200086B
:100170007F0200087F0200087F02000800000000E4
:100180007F0200087F02000800F002F800F041F84A
:100190000AA090E8000C82448344AAF10107DA45E2
:1001A00001D100F036F8AFF2090EBAE80F0013F0F3
:1001B000010F18BFFB1A43F0010318472C2700005A
:1001C0004C270000103A24BF78C878C1FAD85207EB
:1001D00024BF30C830C144BF04680C6070470000C1
:1001E0000023002400250026103A28BF78C1FBD840
:1001F000520728BF30C148BF0B607047732900F019
:10020000A881002070471FB502F089FA1FBD10B504
:1002100010BD00F0A7F91146FFF7F5FF01F064FDEE
:1002200000F0C5F903B4FFF7F2FF03BC00F0C8F912
:1002300016481749174B99423CBF50F8042B41F818
:10024000042BF8D314494FF000028B4238BF43F817
:10025000042BFAD3DFF84400016841F47001016017
:10026000BFF34F8FBFF36F8F0D480047FEE7FEE7E8
:10027000FEE7FEE7FEE7FEE7FEE7FEE7FEE7FEE756
:1002800008480949094A0A4B704700000829000834
:10029000000000202C000020B015002088ED00E0B8
:1002A00089010008B0000020B0150020B005002032
:1002B000B00500200FB41CB5084B06AA7B44694664
:1002C0000090059800F01BF904460020694600F0F4
:1002D00029F920461CBC5DF814FB000065020000F3
:1002E00070B50C460546012A05D02878800600D551
:1002F000EA69002302E0012305E05B1C934202D27D
:10030000E05C0028F9D1A869E618C01AA861286A3B
:10031000184428622846AFF3008004E0D5E90121A3
:1003200014F8010B9047B442F8D32846AFF300808D
:1003300070BD2DE9F0474FF0000A89460446C0F829
:1003400020A02046E1688847002876D0252806D0DE
:10035000D4E901219047206A401C2062F1E7E1685E
:10036000204600258847C4F81CA006460027C4F88C
:1003700018A02A2E09D0304601F034FB38B304EB24
:100380008708303EC8F8186019E059F8041B204669
:1003900004EB87029161E1688847012F064618D176
:1003A000E069002820DA25F020051DE0D8F81800C3
:1003B00000EB800006EB40003038C8F818002046FB
:1003C000E1688847064601F00DFB0028EED1012FB9
:1003D0000AD02E2E08D12046E16888477F1C0646A9
:1003E000022F45F02005C4DBA069002803DA404253
:1003F00045F00105A061E80701D025F01005B6B170
:10040000A6F14100192802D8203645F400654A4675
:100410003146204625604D46FFF7F0FE58B10128D1
:1004200006D0ED1D25F0070000F1080989E704E07A
:1004300005F1040985E730468AE7206ABDE8F087C0
:1004400040EA0103024630B59B0710D14FF001345A
:1004500000E008C208C91D1B9D4315EAC41FF8D05F
:1004600013F0FF0102F8011B0DD01B0AF8E711F889
:10047000013B002B02F8013B05D011F8013B002B9A
:1004800002F8013BF3D130BD10B5203AC0F00B802B
:10049000B1E81850203AA0E81850B1E81850A0E888
:1004A0001850BFF4F5AF5FEA027C24BFB1E81850E2
:1004B000A0E8185044BF18C918C0BDE810405FEA52
:1004C000827C24BF51F8043B40F8043B08BF7047CE
:1004D000D20728BF31F8023B48BF11F8012B28BFD3
:1004E00020F8023B48BF00F8012B70477047704767
:1004F0007047000001694A1C02610878704700B526
:100500008FB0CDE901310021059105497944CDE94C
:10051000031011466846FFF70CFF0FB000BD000046
:10052000E5FFFFFF0A6802F8010B0A60704710B58B
:10053000436913B1AFF3008001E0FFF7D1FE012062
:1005400010BD127800F124010A7000224A700122C5
:10055000EDE711684FF0FF32E9E70000004870470F
:100560004C0000207546FFF7F9FFAE4605006946CE
:10057000534620F00700854618B020B5FFF780FEEF
:10058000BDE820404FF000064FF000074FF0000894
:100590004FF0000B21F00701AC46ACE8C009ACE815
:1005A000C009ACE8C009ACE8C0098D46704710B579
:1005B0000446AFF300802046BDE81040FFF732BE8E
:1005C00001491820ABBEFEE726000200704700007C
:1005D0000A4800680521B1EB603F01DA0520704749
:1005E000064800686FF00401B1EB603F01DD08468A
:1005F000F5E7024800684013F1E70000180000200A
:100600000A4800680521B1EB203F01DA0520704758
:10061000064800686FF00401B1EB203F01DD084699
:10062000F5E7024800680013F1E700001C00002015
:100630000348406920F48070014948617047000018
:10064000001000480348406940F480700149486147
:10065000704700000010004810B52DED048B01F02C
:10066000B1FAB0EE408A01F095FAF0EE408A9FEDC3
:10067000400AB0EE409A9FED3F0AF0EE409AB2EE8B
:10068000040AB4EEC08AF1EE10FA06DCBAEE040AEF
:10069000B4EEC08AF1EE10FA06D2374890ED000AA7
:1006A00030EE080A80ED000AB2EE040AF4EEC08AC9
:1006B000F1EE10FA06DCBAEE040AF4EEC08AF1EEAE
:1006C00010FA06D22D4890ED000A30EE280A80ED8F
:1006D000000A294890ED000ADFED250AB4EEE00A91
:1006E000F1EE10FA09DDFFF7ADFF00F077FF2448C7
:1006F0000068401E2249086017E01F4890ED000A7C
:10070000DFED200AB4EEE00AF1EE10FA09D2FFF7AD
:100710008FFF00F06DFF1A480068401C1849086000
:1007200003E0FFF785FF00F059FF144890ED000A41
:10073000DFED100AB4EEE00AF1EE10FA05DD124822
:100740000068401E104908600EE00C4890ED000A59
:10075000DFED0E0AB4EEE00AF1EE10FA04D20A4818
:100760000068401C08490860BDEC048B10BD000007
:100770000000FA440080BB44200000202400002038
:10078000180000200000FAC41C0000200080BBC438
:100790000F48C06C40F001000D49C8644FF0904014
:1007A000006840F6FF4188434FF0904108600846DA
:1007B000C06840F6FC4188434FF09041C86008464D
:1007C000C06840F6A80108434FF09041C8607047E8
:1007D00000100240002000BF0B49096801F004012D
:1007E0000029F9D1002006E0002207490C3141F828
:1007F0002020411CC8B20F28F6DD0349096841F0EA
:100800000401014A11607047082400402F48806DA0
:1008100000F0805028B92D48806D40F080502B4961
:1008200088652A48806D2A48006800F4807060B9A5
:100830002748006840F480702549086000BF2448BC
:10084000006800F480700028F9D0204890300068DB
:1008500020F005001D49C1F890000846D0F890002E
:1008600040F48030C1F890000846D0F8900020F4A1
:100870008030C1F8900007E014489030006840F0E4
:1008800001001249C1F8900010489030006800F053
:1008900002000028F0D00D489030006820F440702D
:1008A0000A49C1F890000846D0F8900040F48070E2
:1008B000C1F890000846806D20F080508865084699
:1008C000806D40F4007088657047000000100240A1
:1008D000007000402C48006820F060002A49086041
:1008E0000846006840F0400008600846006820F0B4
:1008F0001C0008600846006840F0040008600846D4
:10090000006840F008000860081D006820F4E0500E
:10091000091D08600846006840F4806008600846C9
:10092000006840F4006008600846006840F48050A9
:1009300008600846006820F07000086008460068FB
:1009400040F0100008600846006840F02000086091
:100950000846006840F040000860081F006820F06A
:100960008000091F08600846006820F00200086047
:100970000846006820F0010008600846006840F062
:10098000010008607047000000240040F0B50C46EC
:1009900015460021002600220778342F53D00FDCA3
:1009A000A7F12007142F5AD2DFE807F0235959592D
:1009B00059435959282A253B5938593E494A4B4CE5
:1009C000642F1FD008DCA7F13507052F47D2DFE8D9
:1009D00007F03B3C3D3E3F00B02F27D004DC6D2F9D
:1009E00013D06E2F3BD113E0B52F14D0FF2F36D18B
:1009F00022E000214CE04AF2DD0149E0282147E0F5
:100A0000112145E04FF4734142E04BF210213FE0E9
:100A100042F210213CE046F2840139E04FF42041DB
:100A200036E04AF2140133E0C02131E04FF46C416A
:100A30002EE04FF433412BE04FF6DD7128E000BF8C
:100A400000BF00BF00BF00BF00BF00BF00BF00BFAE
:100A50000778303FDFF864C03CF8171018E00778DB
:100A60005B2F08DA0778402F05DD0778413FDFF874
:100A700050C03CF8171007787B2F08DA0778602FF2
:100A800005DD0778613FDFF838C03CF8171000BF7C
:100A900000BF0CB141F002010DB141F020010C2664
:100AA000002208E041FA06F707F00F079F54371FAE
:100AB000FEB2571CFAB2042AF4DBF0BD102800087D
:100AC000DC2700082DE9FC4105460026002700240C
:100AD00019A103C9CDE900011DE028783A2807D102
:100AE000611ECBB2681E0122002100F0EFF811E078
:100AF00028782E2807D1611ECBB2681E0022012162
:100B000000F0E4F806E0E3B23A463146284600F049
:100B1000DDF8641C6D1C28780028DED107E0E3B204
:100B20000DEB04000022114600F0D0F8641C062CE6
:100B3000F5DBBDE8FC810000202020202020000003
:100B400000B500F007F8FFF761FEFFF7C3FEFFF7FF
:100B500041FE00BD4E48C06C40F001004C49C864E5
:100B60000846C06C40F00200C8640846C06C40F003
:100B70000400C8640846C06C40F00800C8644FF028
:100B800090400068434908404FF090410860084693
:100B90000068414908434FF0904108600846006AE8
:100BA00020F07F4008620846006A40F03B4008623F
:100BB0000846406A394908404FF09041486208466B
:100BC000406A374908434FF0904148623548006811
:100BD00035490840334908600846006833490843EE
:100BE000304908602F482030006800F0FF202D4970
:100BF000203108600846006840F0BB1008602948B2
:100C0000406A4FF60F710840264948620846406A1C
:100C10002749084323494862264800682649084076
:100C200024490860084600682449084321490860AF
:100C3000204820300068C0F30B001E4920310860B6
:100C4000084600681E4908431A49203108601948BF
:100C5000406A20F00F0117484162406A40F00B01E2
:100C6000144841621748006880B216490860084677
:100C7000006815490843134908600846406A002186
:100C800010484162406A40F0BB310E4841627047F3
:100C900000100240FF0FC03F00A02A8000F0FF0FAD
:100CA000BB0B00B000040048F0F0F3000A0A08AAE9
:100CB000B000BBBB000800483F00FCFF80AA020058
:100CC00000B0BBBB000C00480000AAAAF8B505465E
:100CD0000E4617461C466B463A4631462846FFF7F5
:100CE00055FE00BFFE48006800F004000028F9D15E
:100CF000062C7DD2DFE804F00398FCFBFAF9F848F3
:100D00000C300068F7490840F5490C310860F44898
:100D10000838C069F3490840F1490839C8610846F4
:100D2000406AF0490840EE49083948620846C06AFE
:100D3000EC490840EA490839C8629DF80000C0073C
:100D4000C00E9DF80010C1F3400140EAC1509DF86B
:100D50000010C1F3800140EA81509DF80010C1F3FA
:100D6000C00140EAC100DE490C3109680843DC4992
:100D70000C3108609DF80100C007C00E9DF80110FD
:100D8000C1F3400140EAC1509DF80110C1F3800158
:100D900040EA81509DF80110C1F3C00140EAC10052
:100DA000CF490839C9690843CD490839C8619DF858
:100DB0000200C007C00E9DF80210C1F3400140EAD6
:100DC000C1509DF80210C1F3800140EA81509DF8A6
:100DD0000210C1F3C00140EAC100C1490839496AA3
:100DE0000843BF49083948629DF80300C00700E086
:100DF0002EE3C00E9DF80310C1F3400140EAC1503C
:100E00009DF80310C1F3800140EA81509DF8031062
:100E1000C1F3C00140EAC100B1490839C96A0843B9
:100E2000AF490839C86214E3AD480C30006843F29A
:100E300060018843AA490C310860A9480838C06994
:100E400043F260018843A6490839C8610846406AF0
:100E500043F260018843A249083948620846C06AE3
:100E600043F2600188439E490839C8629DF800003A
:100E7000C007400E9DF80010C1F3400140EA413028
:100E80009DF80010C1F3800140EA01309DF8001088
:100E9000C1F3C00140EA411091490C31096808438F
:100EA0008F490C3108609DF80100C007400E9DF885
:100EB0000110C1F3400140EA41309DF80110C1F337
:100EC000800140EA01309DF80110C1F3C00140EA01
:100ED000411083490839C969084381490839C86103
:100EE0009DF80200C007400E03E028E27CE1CAE062
:100EF00036E09DF80210C1F3400140EA41309DF810
:100F00000210C1F3800140EA01309DF80210C1F3E4
:100F1000C00140EA411072490839496A08437049E2
:100F2000083948629DF80300C007400E9DF8031081
:100F3000C1F3400140EA41309DF80310C1F3800144
:100F400040EA01309DF80310C1F3C00140EA4110AE
:100F500063490839C96A084361490839C86278E2B7
:100F60005F480C300068604908405D490C310860FA
:100F70005B480838C0695C49084059490839C8616C
:100F80000846406A584908405549083948620846A9
:100F9000C06A5549084052490839C8629DF80000A6
:100FA000C007000C9DF80010C1F3400140EA4170F9
:100FB0009DF80010C1F3800140EA01709DF8001017
:100FC000C1F3C00140EA813045490C31096808434A
:100FD00043490C3108609DF80100C007000C9DF8E2
:100FE0000110C1F3400140EA41709DF80110C1F3C6
:100FF000800140EA01709DF80110C1F3C00140EA90
:10100000813037490839C969084335490839C86109
:101010009DF80200C007000C9DF80210C1F34001CA
:1010200040EA41709DF80210C1F3800140EA01706E
:101030009DF80210C1F3C00140EA81302849083907
:10104000496A08432649083948629DF80300C007E9
:10105000000C9DF80310C1F3400140EA41709DF877
:101060000310C1F3800140EA01709DF80310C1F341
:10107000C00140EA81301A490839C96A0843184951
:101080000839C862E5E116480C30006820F040409D
:1010900013490C31086012480838806920F00301B8
:1010A0000F4808388161C06920F040410C48083879
:1010B000C161006A20F00301094808380162406AF2
:1010C00020F04041064808384162806A20F0030160
:1010D000034808388162C06A20F04041004805E0BA
:1010E00008240040E7FF3FFFFF3FFFCF0838C16201
:1010F000006B20F00301DD4801639DF80000C0078C
:101100009DF80010C1F3C00140EA8170D749143145
:1011100009680843D549143108609DF80000C0F300
:1011200080009DF80010C1F3400140EA4100CF4922
:1011300089690843CD4988619DF80100C0079DF881
:101140000110C1F3C00140EA8170C849C969084370
:10115000C649C8619DF80100C0F380009DF80110E8
:10116000C1F3400140EA4100C049096A0843BF4950
:1011700008629DF80200C0079DF80210C1F3C0018B
:1011800040EA8170B949496A0843B84948629DF804
:101190000200C0F380009DF80210C1F3400140EA54
:1011A0004100B249896A0843B04988629DF803004A
:1011B000C0079DF80310C1F3C00140EA8170AB493C
:1011C000C96A0843A949C8629DF80300C0F38000BA
:1011D0009DF80310C1F3400140EA4100A349096BA7
:1011E0000843A249086334E1A0481430006820F0A5
:1011F00040709E49143108609C48806920F00C01C1
:101200009A488161C06920F040719848C161006AC4
:1012100020F00C0195480162406A20F0407193482B
:101220004162806A20F00C0190488162C06A20F01F
:1012300040718E48C162006B20F00C018B48016345
:101240009DF80000C0F3400040069DF80010C1F377
:10125000800140EA016085491431096808438349E7
:10126000143108609DF80000C007000F9DF80010C1
:10127000C1F3C00140EA81007C49896908437B4988
:1012800088619DF80100C0F3400040069DF8011000
:10129000C1F3800140EA01607449C9690843734998
:1012A000C8619DF80100C007000F9DF80110C1F34F
:1012B000C00140EA81006D49096A08436B49086230
:1012C0009DF80200C0F3400040069DF80210C1F3F3
:1012D000800140EA01606549496A08436349486200
:1012E0009DF80200C007000F9DF80210C1F3C00175
:1012F00040EA81005D49896A08435C4988629DF83B
:101300000300C0F3400040069DF80310C1F38001C4
:1013100040EA01605549C96A08435449C8629DF8CA
:101320000300C007000F9DF80310C1F3C00140EA9D
:1013300081004E49096B08434C49086389E04B48DA
:10134000143000684A490840484914310860474849
:10135000C069474908404549C8610846406A444950
:101360000840424948620846C06A414908403F492E
:10137000C8629DF80000C007800B9DF80010C1F303
:10138000400140EA01209DF80010C1F3800140EACD
:1013900041209DF80010C1F3C00140EA816033494B
:1013A0001431096808433149143108609DF801007F
:1013B000C007800B9DF80110C1F3400140EA0120F5
:1013C0009DF80110C1F3800140EA41209DF8011011
:1013D000C1F3C00140EA81602449C9690843234937
:1013E000C8619DF80200C007800B9DF80210C1F390
:1013F000400140EA01209DF80210C1F3800140EA5B
:1014000041209DF80210C1F3C00140EA81601749F4
:10141000496A0843154948629DF80300C007800BDC
:101420009DF80310C1F3400140EA01209DF803102C
:10143000C1F3800140EA41209DF80310C1F3C001CF
:1014400040EA81600949C96A08430849C86200E066
:1014500000BF00BF00F00EF804480830006840F0FC
:101460000400024908310860F8BD00000024004073
:10147000FFFCFDFB00BF2748006800F004000028C7
:10148000F9D124480838406A2349084021490839DD
:1014900048620846C06A204908401E490839C862A7
:1014A0001E48007800F0010030B10846C06A40F4E0
:1014B000807118480838C1621848007800F00200AE
:1014C00038B114480838406A40F48071114808382F
:1014D00041621248007800F0040038B10D48083825
:1014E000C06A40F000710B480838C1620B480078B0
:1014F00000F0080038B107480838406A40F0007131
:101500000448083841620348006840F0040001497B
:101510000860704708240040FFFEFFFD28000020FF
:101520002548C06C40F012002349C8642348006875
:1015300020F03000214908600846006840F01000A3
:1015400008601E480830006820F030001B49083150
:1015500008600846006840F030000860081F006816
:1015600020F00400091F086014480C30006820F0C7
:10157000300012490C3108601148006820F44030F6
:101580000F4908600846006840F48030086008464B
:10159000806820F4403088600846806840F440301D
:1015A00088600846406820F4807048600846C0683B
:1015B00020F44030C860704700100240000400482A
:1015C000001000480348007803490870014800787B
:1015D0007047000014000020150000200348006838
:1015E00020F004000149086070470000140400481E
:1015F0000348006840F0040001490860704700009B
:101600001404004810B504480068401E02490860F0
:10161000FFF722F810BD00000000002030B50246A0
:1016200000204FF0E0210861501E48614817012159
:10163000002804DB0B071C0E184B1C5406E00B079C
:101640001D0E174B00F00F04241F1D5500BF4FF057
:10165000FF3000280DDB00BF00BF00F01F03012199
:10166000994043099B0003F1E023C3F8001100BF38
:1016700000BF00BF00204FF0E021886108460069EC
:1016800020F0040008610846006940F0020008618B
:101690000846006940F00100086130BD00E400E048
:1016A00018ED00E05E49096821F007015C4A11600D
:1016B0001146096841F0020111605A49096841F474
:1016C0008071584A116000BF5649096801F4806171
:1016D0000029F9D010205349496821F0F851514AA6
:1016E00051601146496841EA00615160114609683C
:1016F00021F08071116000BF4A49096801F0007152
:10170000B1F1007FF8D04749C96821F00301454A8B
:10171000D1601146C96841F00201D1601146C96823
:1017200021F4FE4141F4A051D1601146C96821F075
:10173000700141F01001D1601146C96821F0C0610B
:10174000D1601146C96841F08071D16011460968C5
:1017500041F08071116000BF3249096801F00071E9
:101760000029F9D02F49896821F003012D4A9160A1
:101770001146896841F00301916000BF29498968D9
:1017800001F00C010C29F9D12649896821F0F001FA
:10179000244A91601146896821F4E0619160114604
:1017A000896821F4605191601146096821F08061D7
:1017B000116000BF1B49096801F08061B1F1806FC1
:1017C000F8D01849096921F4FE41164A1161114601
:1017D000096941F4C05111611146096941F40031B0
:1017E00011611146096941F480311161114609689E
:1017F00041F08061116000BF0A49096801F0806111
:101800000029F9D007498831096821F44001054AC7
:10181000C2F888101146096E41F400111166704734
:1018200000200240001002401A48C06C40F008003E
:101830001849C8641848006820F4705016490860B8
:101840000846006840F420500860134820300068C3
:1018500040F0EE601049203108600F480830006801
:1018600040F470500C4908310860081D006820F4ED
:101870007050091D08600846006840F4A0500860D8
:101880000548001D006820F060000349091D08603C
:101890007047000000100240000C004800B50D48E1
:1018A000806D40F400300B4988650A488830006834
:1018B00020F00C00C1F888000846D0F8880040F0FD
:1018C0000400C1F88800FFF7AFFF034800F010F8EC
:1018D00000BD00000010024000440040642242436A
:1018E0000723B2FBF3F100BF4A1E111EFCD1704763
:1018F000016821F001010160016821F010210160FF
:10190000016821F400410160416821F440514160C7
:101910004FF49C71C160016841F00C0101601E49E7
:1019200088421BD1016841F020010160016821F06B
:1019300040010160016821F010010160016821F09F
:1019400080010160016821F480710160016821F06B
:1019500040010160016821F0010101600F498842E6
:1019600009D1016A41F0400101620D49096841F065
:10197000C0010B4A1160016841F00101016000BF24
:10198000C16901F400110029FAD000BFC16901F456
:1019900080010029FAD07047004C0040004400400C
:1019A00008380140F0B504460E46174600250CE005
:1019B00000BFE06900F080000028FAD0705D20854B
:1019C0004FF49670FFF78AFF6D1CBD42F0D300BF45
:1019D000E06900F040000028FAD0E06920F0400003
:1019E000E061F0BD30380A2801D2012070470020A4
:1019F0007047000070B50546002419E00320B4FBD1
:101A0000F0F100FB114048B9C4EBC40101EB041133
:101A100005EB81000849FEF713FD08E0C4EBC401A3
:101A200001EB041105EB81000449FEF709FD641C7C
:101A30002A2CE3D370BD00008C2800083028000851
:101A400070B505460E4600242FE0C4EBC40000EB41
:101A5000400056F8200008302968814224DAC4EB9F
:101A6000C40000EB400056F8200008382968814285
:101A70001ADDC4EBC40000EB400006EB800069688F
:101A80004068801D81420FDAC4EBC40000EB4000C7
:101A900006EB800069684068801F814204DD05A074
:101AA000FFF710F8012070BD641C012CCDDB002075
:101AB000F9E70000486974000121064A11700649DF
:101AC000086000BF044909680029FBD1014A117070
:101AD00070470000160000200000002070B50B4683
:101AE0004468002C02DA0024446000E000BF0021BA
:101AF00019E0002214E044680C442A2C0FD200F1B3
:101B0000080404EBC104A45C45680D44C5EBC5069C
:101B100006EB051503EB850506681644AC55521C0B
:101B2000072AE8D3491C0829E3D370BDF0B5024663
:101B30000C4600202BE0002126E0002321E0C0EB32
:101B4000C00505EB450502EB85050C3501EBC1062B
:101B50003544ED5CC0EBC00606EB460602EB86069C
:101B600076680E44C6EBC60707EB061604EB86063E
:101B7000C0EBC00707EB470752F827701F44F55525
:101B80005B1C082BDBD3491C0829D6D3401C00283A
:101B9000D1D0F0BD10B52DED028B2B212A2000F005
:101BA0007FFA00EE100AB8EEC00AB0EE408A0221B9
:101BB000BDEEC80A10EE100A00B200F0C5FABDEC86
:101BC000028B10BD10B52DED028B2D212C2000F0C5
:101BD00067FA00EE100AB8EEC00AB0EE408A0221A1
:101BE000BDEEC80A10EE100A00B200F0ADFABDEC6E
:101BF000028B10BD3A48806D40F4804038498865BA
:101C00000846806B40F4804088630846806B20F46F
:101C1000804088633348006820F040003149086004
:101C20000846006820F4806008600846006820F4D8
:101C3000004008600846006820F480400860081DE5
:101C4000006820F47060091D08604FF4E0600860CF
:101C5000081F006820F08000091F0860084600681F
:101C600020F0010008600846006820F002000860CB
:101C70000846006840F0180008600A201949103131
:101C800008601848006820F4005016490860081DD4
:101C9000006820F01000091D0860081F006840F46B
:101CA0000070091F08600846006840F004000860E2
:101CB0000846006840F480700860081D006840F025
:101CC0000800091D08600846006840F4805008605C
:101CD000081F006840F04000091F086070470000BE
:101CE0000010024000380040ADF5825D48224649B0
:101CF0000DF6F870FEF7C8FB54224349483123A87B
:101D0000FEF7C2FB542223A90EA8FEF7BDFBFFF786
:101D1000C9FCFFF705FCFEF713FFFEF739FD00F0E5
:101D200045FA4FF47A70FFF779FCFFF7B7FD3DE015
:101D30000EA800F055F9FEF74BFCDDF8F81F014442
:101D4000CDF8F81FFEF75CFC0146DDF8FC0F0144FE
:101D5000CDF8FC1F38A8FFF74DFE38A90DF6F87036
:101D6000FFF7BCFE38A90EA8FFF7E0FE0EA90DF69E
:101D7000F870FFF765FE00B119E0DDF8F80F0528EF
:101D800007DBDDF8F80F4D2803DCDDF8FC0F2A280F
:101D900000DD0CE038A800F041F900BFFFF712FCAD
:101DA0000028FBD14FF4FA70FFF786FEC0E717A1B9
:101DB00038A8FEF745FB25A14FA8FEF741FB33A14C
:101DC00066A8FEF73DFB41A17DA8FEF739FB4FA1B8
:101DD00094A8FEF735FB5DA1ABA8FEF731FB6BA025
:101DE00001788DF808136AA1D9A8FEF729FB72A122
:101DF000F0A8FEF725FB65A001788DF81C1438A823
:101E000000F00CF900BFFEE74027000820205F5FCC
:101E10005F5F5F2020202020202020202020202005
:101E200020205F5F202020202020205F5F5F5F2038
:101E300020202020202020202020202020205F5F24
:101E4000202020202020202020200000202F205F84
:101E50005F5F2F5F5F5F5F205F5F5F5F5F20205F7F
:101E60005F2F202F5F5F5F5F20202F202F202F5FAD
:101E70005F5F20205F5F5F2020202020202F202F09
:101E80005F5F20205F5F20205F5F00002F202F5FBB
:101E90005F2F205F5F20602F205F5F205C2F202F4F
:101EA000202F205F5F2F205F205C2F202F202F20EE
:101EB0005F5F205C2F205F205C2020202F202F20C0
:101EC0005F205C2F202F202F202F00005C5F5F5FA2
:101ED0002F5F2F202F5F2F202F5F2F202F202F5F8E
:101EE0002F202F5F2F20205F5F2F202F5F2F202F8D
:101EF0005F2F202F20205F5F2F20202F202F2020DA
:101F00005F5F2F202F5F2F202F2000002F5F2F20BB
:101F1000205C5F5F2C5F2E5F5F5F2F5C5F5F2F5CDD
:101F20005F5F2F5C5F5F5F2F5F285F295F2E5F5FC2
:101F30005F2F5C5F5F5F2F20202F5F2F5C5F5F5FF5
:101F40002F5C5F5F2C202F2020000000202020200D
:101F50002020202020202020202020202020202081
:101F60002020202020202020202020202020202071
:101F70002020202020202020202020202020202061
:101F80002F5F5F5F5F2F2020200000000000000017
:101F90002020202020202020202020202020202041
:101FA0002020202053746179206F6E207468652092
:101FB000726F61642120000020202020202020203A
:101FC000202050726573732072657374617274207F
:101FD000746F20706C617920616761696E2E0000FA
:101FE0000146002016E0C0EBC00202EB420201EB0A
:101FF00082025268C0EBC00303EB430301EB83038F
:102000009B681A44C0EBC00303EB430301EB83035B
:102010005A60401C0128E6DB7047000070B5054699
:102020000FA11048FEF746F9064632460D490E4804
:10203000FFF7B8FC002410E0C4EBC40000EB041070
:1020400005EB800209A10748FEF734F9064632463F
:1020500004490548FFF7A6FC641C2A2CECDB70BD84
:102060000C0000002C0000200044004025730D0AE5
:102070000000000030B589B00446224605A101A841
:10208000FEF718F905462A4601A90448FFF78AFC1D
:1020900009B030BD25730D0A000000000044004067
:1020A0003CB505460C4601A9284600F00DF86946E6
:1020B000204600F009F89DF804009DF8001000EBA0
:1020C000012000B23CBD0000F0B502460B460126DF
:1020D0000027F00140EA87140025A018C4B2184870
:1020E000006840F400001649086000F033F9154814
:1020F000047000F02FF900F015F900F01DF900F060
:1021000011F900F027F900200E49087000F022F9BB
:1021100000F008F901E00B4805780A48001F006844
:1021200000F001000028F6D100F0FCF81D70044812
:10213000006840F08000024908602846F0BD0000B9
:10214000180C00480C38004030B52DED048B83B0DE
:1021500004460D46124A07CA8DE80700684600EBA0
:102160008500D0ED000A00EE104AB8EEC00A20EE5D
:10217000800A10EE101A084600F060FA41EC190BC4
:102180009FED080B53EC102B00F05AF941EC180BA3
:1021900000F024F900EE100A03B0BDEC048B30BD52
:1021A00024280008FCA9F1D24D62503F1CB539A08B
:1021B000FFF760FF3C48C06C40F008003A49C86433
:1021C0003A48006820F00C0038490860084600686A
:1021D00040F0080008600846006820F0C000086071
:1021E0000846006840F0800008600846006820F457
:1021F000407008600846006840F4007008600846B7
:10220000006820F4404008600846006840F48040C0
:1022100008602648203000682549084323492031BA
:10222000086022480830006848F2882108431F49A6
:1022300008310860FFF7DEFC1C481830006840F0E9
:1022400080001A491831086069460F20FFF73CFFEB
:10225000D42803D017A0FFF70DFF04E01CA0FFF760
:1022600009FFFFF7C5F90F242146202000F07CF874
:1022700001A92020FFF728FF9DF804000F2803D0B4
:102280001BA0FFF7F7FE04E01FA0FFF7F3FEFEF729
:10229000D9F91CBD496E697469616C697A696E67A8
:1022A000204779726F21000000100240000C0048A6
:1022B000505005004779726F2057484F5F414D5F7E
:1022C000492054657374204661696C6564000000A0
:1022D0004779726F2057484F5F414D5F49205465E1
:1022E0007374205355434345535346554C210000C6
:1022F000577269746520746F204779726F20466148
:10230000696C757265210000496E697469616C6958
:102310007A696E67204779726F20537563636573BE
:102320007321000000BF0348006800F0800000280F
:10233000F9D170470838004001E0054908780449A0
:10234000091F096801F001010029F6D1704700005A
:102350000C38004000BF0348006800F0020000286D
:10236000F9D07047083800402DE9F04704460D4683
:102370000027B846F80140EA8816B9463019C6B2B7
:102380001448006840F4000012490860FFF7E2FFBB
:1023900011480670FFF7DEFFFFF7C4FFFFF7CCFF21
:1023A000FFF7C0FFFFF7D6FF0B480570FFF7D2FF1E
:1023B000FFF7B8FFFFF7C0FFFFF7B4FF4FF49670C9
:1023C000FFF78CFA0348006840F08000014908607C
:1023D000BDE8F087180C00480C38004021F000429E
:1023E000A2F16052B2F5801F01F0004328BFD2F184
:1023F0007F6C0BD95FEA001C43EAC20242EB5070CB
:1024000018BF704728BF20F001007047B2F5801F49
:10241000BCBF184670474FEA410C1CF5001F02D2A2
:10242000084600F081B970B500F0B4F800000089EA
:10243000FFF7F6BF4FF00040A0F5800070470000A6
:10244000DFF848C170B51CEA111E1EBF1CEA131547
:102450009EEA0C0F95EA0C0F00F06F8081EA0304EE
:1024600023EA4C134EEAD47E21EA4C1141F4801148
:1024700043F48013AE44A1FB024CA0FB0365AEF114
:102480007F7E361955EB0C05A1FB034C4CF1000384
:10249000A0FB021C16EB0C06654153F10003094238
:1024A00018BF46F0010613F4007F0BD14FEA033149
:1024B0004FEA0530340341EA155140EA16506FF0F7
:1024C00003020AE04FEAC3214FEAC520F40241EAC1
:1024D000555140EA56506FF0020202EB2E4201EBDA
:1024E000025585EACE710AD05FEA440C18BF24F089
:1024F000004450F1000041F1000120EAD47040F2A4
:10250000FE7C624500D270BDA84214BF4FF08044EB
:102510004FF04044002E08BF0024BEF1806FA8BFDA
:10252000A1F1C041BDE8704080F282804FF0000010
:1025300001F1C04101F0004170479EEA0C0F0CEA26
:10254000131518BF95EA0C0F06D04FF0000081EA72
:10255000030E0EF0004170BD00F01CF88900013E32
:1025600000F007B800F009B84FEA430C5FEA5C5C82
:1025700008D081EA030100F05BB84FEA410C5FEA42
:102580005C5CF6D14FF00000014970470000FF0786
:102590000000F87F0EF1020E2EF0030E5EF8046BC1
:1025A000364205D4012A43EB030515F5001F12D866
:1025B000012841EB010C1CF5001F0CD80ED14FEA8D
:1025C000D17C15F5001F0CEB4C0C0CF1020C08BF74
:1025D0004CEBD37C04E04FF0080C01E04FEAD37CD5
:1025E0000CEB4C0526FA05F606F00706B6F1040CCE
:1025F00006D20EEB860CBDE870404CF0010C604733
:10260000DFE80CF0090B02024FF000414FF0000030
:10261000A1F5002170BD19461046012851EB0104B7
:1026200018BFD4F5001484BF002001F0004170BD34
:102630000808A0F500114FEA3101704743004FEA46
:10264000D30C4FEA3C0C43401FBF40070CF16051D4
:1026500013F0FE4F70471CF0006F03D100200CF008
:10266000004170470CF0004343EA507010B540EA57
:10267000CC0000F00EF800BF000000924FEA00010D
:10268000FFF7D6BF4FF000414FF00000A1F5002149
:1026900070470EF1020E2EF0030E5EF8044B24423A
:1026A00004D44FEA4102B2F17F4F11D84FEA400300
:1026B000B3F17F4F0CD80ED14FEAD07CB2F17F4FEF
:1026C0000CEB4C0C0CF1020C08BF4CEBD17C04E081
:1026D0004FF0080C01E04FEAD17C0CEB4C0324FADC
:1026E00003F404F00704B4F1040C06D20EEB840CDE
:1026F000BDE810404CF0010C6047DFE80CF0070823
:1027000002024FF00040A0F5800010BD08464200D4
:1027100018BFD2F1807288BF00F0004010BD4FF0AA
:102720004070E1EE100A7047FF2141EAD050C00529
:10273000704700005C0000002A000000010000005B
:10274000360000001A000000202F2A2D2A5C2000ED
:10275000207C5F5F5F7C20002F5F5F5F5F5F5C00BE
:102760007C20202020207C007C5F5F5F5F5F7C00FE
:102770005C5F5F5F5F5F2F00207C7C207C7C2000A3
:10278000207C2020207C20001E0000000000000093
:102790000300000020205F5F5F5F2020007C7C2022
:1027A0002020207C7C007C7C205F5F207C7C007C67
:1027B0007C2F7C7C5C7C7C007C7C5C7C7C2F7C7CAF
:1027C000007C7C5F7C7C5F7C7C002020207C7C20EB
:1027D0002020002020207C7C2020200000FE146788
:1027E000001D1447009D009C003F00FA1400005398
:1027F00041980019485A095A005F00FC015F01FC2A
:1028000000AF1404005BC018815AC9005800C0050D
:10281000005F004200F5006700EA00AF00BF00461D
:1028200000FF00EF00000C4100008C4100008C42D2
:1028300020202020202020202020202020207C203C
:102840002020202020202020202020202020202088
:102850002020202020202020202020202020202078
:102860002020202020202020202020202020202068
:102870002020202020202020202020207C202020FC
:102880002020202020202020202020002020202068
:10289000202020202020202020207C2020202020DC
:1028A0002020202020202020202020202020202028
:1028B0002020202020202020207C202020202020BC
:1028C0002020202020202020202020202020202008
:1028D00020202020202020207C202020202020209C
:1028E00020202020202020000829000800000020AF
:1028F0002C000000C4010008342900082C0000202E
:1029000084150000E0010008000000000000000045
:1029100000000000000000000000000000000000B7
:1029200000000000000000000000000000000000A7
:0429300000000000A3
:040000050800018965
:00000001FF
