:020000040800F2
:10000000781500204D020008890200088B020008C4
:100010008D0200088F020008910200080000000015
:100020000000000000000000000000009302000833
:10003000950200080000000097020008D919000886
:100040009B0200089B0200089B0200089B0200081C
:100050009B0200089B0200089B0200089B0200080C
:100060009B0200089B0200089B0200089B020008FC
:100070009B0200089B0200089B0200089B020008EC
:100080009B0200089B0200089B0200089B020008DC
:100090009B0200089B0200089B0200089B020008CC
:1000A0009B0200089B0200089B0200089B020008BC
:1000B0009B0200089B0200089B0200089B020008AC
:1000C0009B0200089B0200089B0200089B0200089C
:1000D0009B0200089B0200089B0200089B0200088C
:1000E0009B0200089B0200089B0200089B0200087C
:1000F0009B0200089B0200089B0200089B0200086C
:100100009B0200089B0200089B0200089B0200085B
:100110009B0200089B0200089B0200089B0200084B
:100120009B0200089B0200089B0200089B0200083B
:100130009B0200089B0200089B0200089B0200082B
:100140009B0200089B0200089B0200089B0200081B
:100150009B0200089B0200089B0200089B0200080B
:100160009B0200089B0200089B0200089B020008FB
:100170009B0200089B0200089B0200080000000090
:100180009B0200089B02000800F002F800F04FF804
:100190000AA090E8000C82448344AAF10107DA45E2
:1001A00001D100F044F8AFF2090EBAE80F0013F0E5
:1001B000010F18BFFB1A43F0010318472C2300005E
:1001C0004C230000103A24BF78C878C1FAD85207EF
:1001D00024BF30C830C144BF04680C6070470000C1
:1001E0000023002400250026103A28BF78C1FBD840
:1001F000520728BF30C148BF0B607047662902F024
:100200001281782900F0D880732900F09E830020A5
:1002100070471FB502F0FDF800F09CFB04000020C1
:10022000002101F03FFFE0601FBD10B510BD00F0E0
:1002300091FC1146FFF7EDFF01F0DCFE00F0AFFC92
:1002400003B4FFF7F2FF03BC00F0F2FC16481749B5
:10025000174B99423CBF50F8042B41F8042BF8D3BC
:1002600014494FF000028B4238BF43F8042BFAD3F5
:10027000DFF84400016841F470010160BFF34F8F63
:10028000BFF36F8F0D480047FEE7FEE7FEE7FEE78E
:10029000FEE7FEE7FEE7FEE7FEE7FEE7084809495E
:1002A000094A0A4B7047000024250008000000207E
:1002B000180000207815002088ED00E08901000872
:1002C00078000020781500207805002078050020AF
:1002D0000FB41CB5084B06AA7B44694600900598EC
:1002E00000F009FB04460020694600F017FB204699
:1002F0001CBC5DF814FB0000410600002DE9F04134
:100300000E460446002020622046E168884730B34C
:10031000252805D0D4E901219047206A401CF2E746
:10032000E168204600278847050018D0A5F1410064
:10033000192802D820354FF4006732462946204656
:100340002760FFF75BFF40B1012804D0F61D26F0BF
:1003500007060836D8E7361DD6E72846DAE7206ACA
:10036000BDE8F08170B50C460546012A05D0287815
:10037000800600D5EA69002302E0012305E05B1C4A
:10038000934202D2E05C0028F9D1A869E618C01AAD
:10039000A861286A184428622846AFF3008004E068
:1003A000D5E9012114F8010B9047B442F8D328464F
:1003B000AFF3008070BD000070B504460D462146C5
:1003C0001068AFF300802188090502D50F4A7A44EE
:1003D00002E00E4A7A440E32002104F1240305E0C3
:1003E00000F00F060009965D5E54491C0028F7D105
:1003F00020780023000704D5702D02D009B1022314
:1004000011322046BDE8704000F005B858200000C9
:100410007047704770472DE9F0470D469946924660
:10042000044600F124080168880604D5E06921F03B
:100430001001216000E00120A84201DD471B00E01F
:100440000027A1697A1902EB0900081AA061207837
:10045000C00602D42046AFF30080002608E0D4E9AD
:1004600001211AF806009047206A401C761C206281
:100470004E45F4DB2078C0060AD52046AFF3008055
:1004800006E0D4E9012130209047206A401C206218
:10049000381EA7F10107F4DC07E0D4E9012118F8C0
:1004A00005009047206A401C2062281EA5F1010526
:1004B000F3DC2046AFF300802078000602D502204E
:1004C000BDE8F0870120FBE770472DE9FF4F0C46A0
:1004D0001E464FF0FF378BB0D2E90001DDF8608097
:1004E0000A908A46C1F30A5505B93D4600210846DF
:1004F0004FF00000BAF1000F00F4400005DA00EB05
:1005000080004FF4400101EA50004FEA9059B9F1E0
:10051000010F00DDB9460A9850EA4A000ED044F6B1
:100520001050A5F2FF3545432F14B8F1000F1ED02F
:100530007542291E1EDDC9F100021CE0B8F1010F51
:100540004FF0000001D0302103E0F24305E02154D8
:10055000401CB042FBDB30460022002121540B99A5
:10056000C1F80880C1E900200FB000F0BCB9BD1B84
:100570006D1CDEE74A4600DA694206A800F074FA0C
:1005800006AB93E8070003AB83E8070050460A99DF
:1005900000F055FB8DE80700A0F500501F380090D3
:1005A0000398002D0ADD42F21F014A460844002349
:1005B00003A90390684600F0BEFD09E0A0F50050D5
:1005C0004A461F38002303A90390684600F0C8FD7F
:1005D0008DE807000004000C03D04FF0FF30410805
:1005E00000E01046B8F1000F03D00022009215463B
:1005F0001EE0751E05D400F0B1F9303262556D1E53
:10060000F9D5B3460122084302D000227F1C04E042
:100610002078302801D100227F1E002A099784D03B
:100620001DE0112D07DA00F099F9303262556D1C8A
:1006300050EA0102F5D1084302D00098C8B10EE09B
:100640000021681E05E0235C625C63542254401E56
:10065000491C8142F7DBAB46A81B401E09900020D5
:1006600004F80B000B98099AC0F80880C0E9002B29
:100670007AE711264FF0000857E72DE9F04F88463A
:100680000446D21D22F0070191B0D1E90001CDE965
:100690000A0101F099FB02460B98C00F01D02D20F2
:1006A00007E02068810701D52B2002E0202101EA24
:1006B000C000032A099001D0072A05DB0346414602
:1006C000204600F091F90BE12078800601D5E06921
:1006D00000E00620B8F1650F814606D0B8F1660F3C
:1006E00018D0B8F1670F70D131E00020B9F1110FC7
:1006F000009001DB112301E009F101030AAA01A91D
:100700000CA8FFF7E2FEDDE90C70002609F10105F7
:10071000834647E001204B4600904FF000470AAA6D
:1007200001A90CA8FFF7D1FEDDE90DB00C995D46DB
:10073000002610B909F101000D18B9EB050003D42A
:10074000C0F1FF3609F10105A5EB09002BE0B9F175
:10075000010F01DA4FF001090020B9F1110F0090EB
:10076000484601DD112300E003460AAA01A90CA8AE
:10077000FFF7ABFEDDE90C704D460026834620787E
:1007800000070AD4AB4500DA5D4601A8012D04DD5F
:10079000411911F8011C302907D04F4502DA17F131
:1007A000040F04DA012082460FE06D1EEEE7002FF1
:1007B00002DCED1B3E4403E0781CA84200DD7D1CFA
:1007C000B81B00F1010A4FF000472078000703D45E
:1007D000AA4501DB4FF0FF3A0021B7F1004F0DF1C0
:1007E00043088DF8431024D002202B23002F01DA78
:1007F0007F422D230A21021EA0F1010000DC5FB11F
:1008000097FBF1FC97FBF1F201FB1C7C17460CF106
:10081000300C08F801CDEEE7A8F101000370218843
:10082000090501D5452100E06521A0F1010800F886
:10083000011C09980FA9A1EB0807FF1D00B10120B9
:10084000411901EBEA70A1693844081A401EA06101
:100850002078C00602D42046AFF30080099828B162
:10086000D4E901219047206A401C20622078C0060C
:1008700022D52046AFF300801EE0002E04DBB345F6
:1008800002DD01A8805D00E03020D4E9012190471D
:10089000206A401C2062761CAAF101005FEA000A6F
:1008A0000AD100F057F8C0680168405CD4E9012122
:1008B0009047206A401C2062281EA5F10105DCDC5F
:1008C00007E0D4E9012118F8010B9047206A401C89
:1008D0002062381EA7F10107F3DC2046AFF3008049
:1008E000032011B041E630BCBDE8C08F01694A1C4D
:1008F00002610878704700B58FB0CDE90131002161
:10090000059105497944CDE9031011466846FFF782
:10091000F5FC0FB000BD0000E5FFFFFF0A6802F81C
:10092000010B0A60704710B5436913B1AFF3008043
:1009300001E0FFF717FD012010BD127800F124013E
:100940000A7000224A700122EDE711684FF0FF3271
:10095000E9E70000004870473800002030B5B0F1EA
:100960000A024FEA900E71F100034EEA817EB0EB6D
:100970000E0061EB91014FEA101E4EEA017E10EB72
:100980000E0041EB11114FEA102E4EEA016E10EBF2
:100990000E0041EB11214FEA104E4EEA014E10EBD2
:1009A0000E0041EB1141401841F100014FEAD00027
:1009B00040EA41704FEAD10110EB80054FEA810413
:1009C00044EA907444EB01046D1944EB0404521B97
:1009D000A3414FF0000348BF0A3200D530BD401C90
:1009E00041F1000130BD00002DE9F0411F460446F1
:1009F00003260168072A01F4006004DB08B116A58C
:100A000005E016A503E008B115A500E015A521F045
:100A100010002060A069C01EA0610FB1401EA0613F
:100A20002046AFF300804FB1D4E90121384690470A
:100A3000206A401C2062C01C206206E0206AFAE79F
:100A4000D4E9012115F8010B9047761EF8D2204613
:100A5000AFF30080BDE8F0814E414E006E616E0044
:100A6000494E4600696E66002DE9F04781461646FC
:100A70008AB0354878440DC88DE80D003248784476
:100A8000801C03AC0DC884E80D0041F69B3008447F
:100A9000372190FBF1F290FBF1F5A5F1800501FB08
:100AA00012041B3C02D56442012000E00020DFF864
:100AB00098A080460027FA44AAF1BE0A0EE0E0079B
:100AC0000AD03246684607EB470101230AEB810151
:100AD00000F046FB8DE8070064107F1C002CEED16F
:100AE000194F7F44AE3F19E0E80715D007EB04101B
:100AF0000DF1180A90E80E008AE80E00C068F04276
:100B000001D1981908903246012306A903A800F0E4
:100B100027FB03AB83E807006D10641C002DE3D1B5
:100B20004FF0010332466946B8F1000F03A802D026
:100B300000F001FB01E000F013FBC9E90001C9F876
:100B400008200AB0BDE8F087581A00000048704736
:100B5000180000207546FFF7F9FFAE46050069460C
:100B6000534620F00700854618B020B5FFF796FBE6
:100B7000BDE820404FF000064FF000074FF000089E
:100B80004FF0000B21F00701AC46ACE8C009ACE81F
:100B9000C009ACE8C009ACE8C0098D46704710B583
:100BA0000446AFF300802046BDE81040FFF748BB85
:100BB0004FF0013C50F8042B51F8043B9A4221D1EC
:100BC000A2EB0C03934313EACC1317D150F8042B78
:100BD00051F8043B9A4215D1A2EB0C03934313EA5C
:100BE000CC130BD150F8042B51F8043B9A4209D195
:100BF000A2EB0C03934313EACC13DBD04FF00000BD
:100C0000704700BFD01A01BAB1FA81F101F01801A2
:100C100022FA01F0CB40C1F12001DBB2C0B2C01A10
:100C20002CFA01F3D11A914311EAC311E6D17047AE
:100C300001491820ABBEFEE72600020070475FEABC
:100C4000400C08BF91F0000F4FEA8C234FEAC122FD
:100C500043EA51514FEA1C5018BF00F5F0404FEAEB
:100C6000300018BF41F000415FEA6C5C00F0298061
:100C7000BCF1FF3F08BF40F080407047130C06BF37
:100C800012044FF0100C4FF0000C130E04BF1202B0
:100C90000CF1080C130F04BF12010CF1040C930F9C
:100CA00004BF92000CF1020CD30F04BF52000CF1F0
:100CB000010C11464FF00002A0F11F00A0EB0C0048
:100CC000704711F0004F08BF704731F000413FF40A
:100CD000D5AF0B0C06BF09044FF0100C4FF0000C01
:100CE0000B0E04BF09020CF1080C0B0F04BF090125
:100CF0000CF1040C8B0F04BF89000CF1020CCB0F1C
:100D000004BF49000CF1010CCCF12003A0EB0C0056
:100D100022FA03F302FA0CF241EA030100F10100A6
:100D2000704720F07F4C80EA030023F07F47ACEB54
:100D3000070303F57C5300F0004003F1FF032DE9A6
:100D400080494FEA154B09B44FEA144325EA0B4E8C
:100D500024EA03480FF2042606EB132749083E78DD
:100D60005FEA320203FB0667C7F5000707FB06F6DA
:100D70004FEA54374FEAD64606F1020607FB066CE7
:100D8000CCF1005C4FEA1C472CEA074C07FB06F449
:100D90000CFB06F504EB15464FEA961634BF00200F
:100DA0004FF000404FEAD13706FB07FC4FEA1C4CDE
:100DB0000CFB0BF7D21B03FB0CF761EB07010CFBE1
:100DC0000EF7B0EB074072EB17420CFB08F734BF8D
:100DD000A2EB0742B2EB074261EB17414FEA0C442A
:100DE0004FEA910706FB07FC4FEA1C4C0CFB0BF784
:100DF000B0EBC74072EB573203FB0CF734BFA2EBEA
:100E0000C742B2EBC74261EB57310CFB0EF7B0EBB8
:100E1000C70072EB57720CFB08F734BFA2EBC70296
:100E2000B2EBC70261EB5771039F4FEA816141EA60
:100E3000921104EBCC044FEAD1374FEA826206FBF1
:100E400007FC42EA90124FEA80604FEA1C4C0CFB10
:100E50000BF7D21B03FB0CF761EB07010CFB0EF742
:100E6000B0EB074072EB17420CFB08F734BFA2EB64
:100E70000742B2EB074261EB17414FEA8C554FEA4C
:100E8000910704EB9C2406FB07FC4FEA1C4C0CFB6F
:100E90000BF7B0EBC74072EB573203FB0CF734BFD4
:100EA000A2EBC742B2EBC74261EB57310CFB0EF726
:100EB000B0EBC70072EB57720CFB08F734BFA2EB24
:100EC000C702B2EBC70261EB577115EB4C254FEA35
:100ED000816141EA92114FEA82624FEAD13742EAD8
:100EE000901206FB07FC44F100044FEA80604FEAD1
:100EF0001C4C0CFB0BF7D21B03FB0CF761EB07013F
:100F00000CFB0EF7B0EB074072EB17420CFB08F737
:100F100034BFA2EB0742B2EB074261EB174115EB7E
:100F20001C154FEA813141EA92414FEA823242EA8E
:100F300090424FEA80304FEA0C7644F1000448EAD0
:100F400003434EEA0B484FF0000EB2EB080C71EB76
:100F5000030724BF624639464EEB0E0E4FF0000BDE
:100F60000018524149414BEB0B0BB2EB080C71EBF3
:100F700003077BF1000B24BF624639464EEB0E0E91
:100F80004FF0000B0018524149414BEB0B0BB2EBF9
:100F9000080C71EB03077BF1000B24BF6246394656
:100FA0004EEB0E0E51EA020718BF46F0010616EB93
:100FB0000E7655F1000254F1000103D5BDE8890118
:100FC000BDE80088BDE88901BDE80048B619524176
:100FD00041EB0101A3F10103704780807F7E7D7C9E
:100FE0007B7A7978777676757473727171706F6EBB
:100FF0006E6D6C6C6B6A6A69686867666665646466
:10100000636362616160605F5F5E5E5D5D5C5C5BEF
:101010005B5A5A595958585757565655555554545E
:10102000535352525251515050504F4F4F4E4E4DBC
:101030004D4D4C4C4C4B4B4B4A4A4A494949484808
:101040004847474747464646454545444444444348
:1010500043434342424242414141002B9C4630D4EB
:1010600077002BD01CB54FEA370703B44FF01000C0
:101070004FF01001BAF1000F06D0BCF1000FDCBF39
:1010800040F0080040F008014FF000000FBCBDE840
:1010900010400BF1010BBBF1010F08BF5FEA17070E
:1010A00022BF12F1010211F101014FF0004143F1A1
:1010B000000300F0004043EA00007047F9D35708EE
:1010C000D0E746EA064613F1400F4FEA16461FDD09
:1010D00013F1200FDFBF16430A46002120335B4285
:1010E000BED0C3F1200746EA064602FA07F74FEAE8
:1010F000164646EA0706C3F1200722FA03F201FA70
:1011000007F721FA03F14FF0000342EA0702A7E7CD
:1011100046EA020646EA06464FEA164646EA01064F
:10112000BCBF46EA0646360C4FF000034FF0000203
:101130004FF0000194E72DE9804C9A46934670B435
:1011400091E8380007C831EA400C48BF34EA430C44
:1011500003D5FFF7E6FDFFF780FFF0BCBDE8008C8C
:101160002DE9804C9A46934670B491E8380007C840
:1011700010F0804F08BF13F0804F03D100F005F846
:10118000FFF76BFFF0BCBDE8008C20F07F4780EAE2
:10119000030023F07F4C07EB0C03A3F57C5300F016
:1011A0000040A3F1FE0392F0000F00F0B38095F031
:1011B000000F00F077802DE901494FEA11404FEA16
:1011C000144621EA004800FB06FC24EA064708FB17
:1011D00006F607FB08F800FB07F718EB06484CEB90
:1011E000164C4FEA124B18EB07484FEA15464CEBEA
:1011F000174022EA0B4E0BFB06FC25EA06470EFBC6
:1012000006F607FB0EFE0BFB07F71EEB064E4CEB3C
:10121000164C4FF000061EEB074E4CEB174B18EB2D
:101220000B0840F1000018EB0E0B58EB000840F1E2
:1012300000008F1A4FF000013CBFC943661B14BF6A
:10124000B5EB040C00213CBFC943F61B4FEA174421
:101250004EEA8E0E27EA04454FEA1C4704FB07625C
:101260002CEA074C05FB07F70CFB05F604FB0CFC0E
:1012700016EB074642EB174216EB0C4642EB1C42BC
:101280001BEB060658EB0202414146EA9E0601D5D9
:10129000BDE80189B619524141EB0101A3F10103F7
:1012A000BDE801894FEA14454FEA114724EA054693
:1012B00021EA074C05FB07F406FB07F70CFB06F1D8
:1012C00005FB0CFC11EB074144EB17444FEA1247B6
:1012D00011EB0C4144EB1C4422EA074C05FB07F2DE
:1012E00006FB07F70CFB06F605FB0CFC16EB0746A6
:1012F00042EB174216EB0C4642EB1C456A1854F1C0
:10130000000148BF7047B619524141EB0101A3F1FA
:101310000103704795F0000F37D04FEA11424FEAB2
:10132000144721EA024624EA074C02FB07F106FBB8
:1013300007F70CFB06F402FB0CFC14EB074441EB33
:1013400017414FEA154714EB0C4441EB1C4125EAC9
:10135000074C02FB07F506FB07F70CFB06F602FB42
:101360000CFC16EB074645EB174516EB0C4645EB18
:101370001C42121951F1000148BF7047B619524181
:1013800041EB0101A3F1010370474FEA14454FEA15
:10139000114724EA054621EA074C05FB07F106FB45
:1013A00007F70CFB06F24FF0000605FB0CFC12EBF6
:1013B000074241EB174112EB0C4251EB1C4148BF75
:1013C0007047921841EB0101A3F10103704700003F
:1013D0000948C06C40F001000749C8644FF09040D4
:1013E000006820F003004FF0904108600846006953
:1013F0000249086070470000001002401000002001
:10140000002000BF0B49096801F004010029F9D14F
:10141000002006E0002207490C3141F82020411C41
:10142000C8B20F28F6DD0349096841F00401014AFA
:1014300011607047082400402F48806D00F08050F4
:1014400028B92D48806D40F080502B4988652A4886
:10145000806D2A48006800F4807060B927480068F1
:1014600040F480702549086000BF2448006800F4FB
:1014700080700028F9D020489030006820F00500E6
:101480001D49C1F890000846D0F8900040F4803023
:10149000C1F890000846D0F8900020F48030C1F8E0
:1014A000900007E014489030006840F001001249B5
:1014B000C1F8900010489030006800F00200002849
:1014C000F0D00D489030006820F440700A49C1F80F
:1014D00090000846D0F8900040F48070C1F8900069
:1014E0000846806D20F0805088650846806D40F485
:1014F00000708865704700000010024000700040D6
:101500002C48006820F060002A49086008460068FE
:1015100040F0400008600846006820F01C000860A9
:101520000846006840F0040008600846006840F083
:1015300008000860081D006820F4E050091D0860DC
:101540000846006840F4806008600846006840F47F
:10155000006008600846006840F480500860084653
:10156000006820F0700008600846006840F0100035
:1015700008600846006840F02000086008460068DF
:1015800040F040000860081F006820F08000091F3C
:1015900008600846006820F00200086008460068FD
:1015A00020F0010008600846006840F00100086073
:1015B000704700000024004000B500F007F8FFF776
:1015C0003BFFFFF79DFFFFF71BFF00BD4E48C06CC0
:1015D00040F001004C49C8640846C06C40F002006D
:1015E000C8640846C06C40F00400C8640846C06C7B
:1015F00040F00800C8644FF090400068434908403C
:101600004FF09041086008460068414908434FF098
:10161000904108600846006A20F07F400862084652
:10162000006A40F03B4008620846406A3949084079
:101630004FF0904148620846406A374908434FF0EE
:101640009041486235480068354908403349086090
:101650000846006833490843304908602F48203065
:10166000006800F0FF202D4920310860084600681E
:1016700040F0BB1008602948406A4FF60F710840DF
:10168000264948620846406A274908432349486278
:101690002648006826490840244908600846006832
:1016A0002449084321490860204820300068C0F3DD
:1016B0000B001E4920310860084600681E49084397
:1016C0001A49203108601948406A20F00F01174874
:1016D0004162406A40F00B011448416217480068BB
:1016E00080B2164908600846006815490843134946
:1016F00008600846406A002110484162406A40F094
:10170000BB310E484162704700100240FF0FC03FDE
:1017100000A02A8000F0FF0FBB0B00B000040048BF
:10172000F0F0F3000A0A08AAB000BBBB00080048AA
:101730003F00FCFF80AA020000B0BBBB000C0048C9
:101740000000AAAA2548C06C40F012002349C864D2
:101750002348006820F030002149086008460068EE
:1017600040F0100008601E480830006820F030008B
:101770001B49083108600846006840F030000860E6
:10178000081F006820F00400091F086014480C308E
:10179000006820F0300012490C31086011480068E0
:1017A00020F440300F4908600846006840F480305B
:1017B00008600846806820F44030886008468068E9
:1017C00040F4403088600846406820F480704860EB
:1017D0000846C06820F44030C860704700100240DE
:1017E000000400480010004830B589B03AA000F06D
:1017F00043FC3E48C06C40F008003C49C8643C488B
:10180000006820F00C003A4908600846006840F083
:10181000080008600846006820F0C000086008461C
:10182000006840F0800008600846006820F44070BE
:1018300008600846006840F40070086008460068C8
:1018400020F4404008600846006840F4804008608A
:10185000274820300068274908432549203108607F
:1018600023480830006848F288210843204908319D
:10187000086000F009FB1E481830006840F0800046
:101880001B49183108600F2000F05CF805462A4615
:1018900019A101A8FEF71CFD0446224601A91B4818
:1018A00000F072FA0F2000F04DF805462A4618A104
:1018B00001A8FEF70DFD0446224601A9134800F0D9
:1018C00063FA00F0A3FA18A000F0D6FB41F28830CA
:1018D00000F092FA09B030BD496E697469616C69B3
:1018E0007A696E674779726F21000000001002402C
:1018F000000C0048505005005265616446726F6DDF
:10190000307830463D25780D0A0000000044004044
:10191000326E645265616446726F6D307830463D58
:1019200025780D0A00000000496E697469616C69D0
:101930007A696E67204779726F20537563636573A8
:101940007321000008B501461148006840F400000A
:101950000F4A106000F030F841F080000D4A10602E
:1019600000F01AF80B48006800F026F8FF20094A3A
:10197000106000F011F807480068C0B200900448F9
:10198000006840F08000024A10609DF8000008BD29
:10199000180C00480C38004000BF0648006800F0F2
:1019A00001000028F9D00348006800F080000128F9
:1019B000F3D070470838004000BF0648006800F0C8
:1019C00002000028F9D00348006800F080000128D8
:1019D000F3D070470838004006480068401E0549AB
:1019E00008600548007820B104480068401C03499D
:1019F0000860704700000020140000200400002050
:101A000030B5024600204FF0E0210861501E4861C9
:101A100048170121002804DB0B071C0E184B1C542F
:101A200006E00B071D0E174B00F00F04241F1D5579
:101A300000BF4FF0FF3000280DDB00BF00BF00F0FB
:101A40001F030121994043099B0003F1E023C3F8E0
:101A5000001100BF00BF00BF00204FF0E0218861EF
:101A60000846006920F0040008610846006940F05B
:101A7000020008610846006940F00100086130BDBD
:101A800000E400E018ED00E05E49096821F007017C
:101A90005C4A11601146096841F0020111605A491F
:101AA000096841F48071584A116000BF56490968BD
:101AB00001F480610029F9D010205349496821F0D0
:101AC000F851514A51601146496841EA006151603C
:101AD0001146096821F08071116000BF4A49096808
:101AE00001F00071B1F1007FF8D04749C96821F0D9
:101AF0000301454AD1601146C96841F00201D16035
:101B00001146C96821F4FE4141F4A051D16011464B
:101B1000C96821F0700141F01001D1601146C96817
:101B200021F0C061D1601146C96841F08071D16077
:101B30001146096841F08071116000BF324909689F
:101B400001F000710029F9D02F49896821F00301C3
:101B50002D4A91601146896841F00301916000BFF0
:101B60002949896801F00C010C29F9D126498968B5
:101B700021F0F001244A91601146896821F4E06166
:101B800091601146896821F460519160114609689D
:101B900021F08061116000BF1B49096801F080617C
:101BA000B1F1806FF8D01849096921F4FE41164A55
:101BB00011611146096941F4C05111611146096969
:101BC00041F4003111611146096941F4803111611C
:101BD0001146096841F08061116000BF0A49096837
:101BE00001F080610029F9D007498831096821F4A2
:101BF0004001054AC2F888101146096E41F40011EF
:101C00001166704700200240001002401A48C06C64
:101C100040F008001849C8641848006820F4705063
:101C2000164908600846006840F4205008601348D0
:101C30002030006840F0EE601049203108600F4805
:101C40000830006840F470500C4908310860081DE5
:101C5000006820F47050091D08600846006840F4D0
:101C6000A05008600548001D006820F0600003498E
:101C7000091D08607047000000100240000C004879
:101C800000B50D48806D40F400300B4988650A4866
:101C90008830006820F00C00C1F888000846D0F8B1
:101CA000880040F00400C1F88800FFF7AFFF034848
:101CB00000F010F800BD0000001002400044004099
:101CC000642242430723B2FBF3F100BF4A1E111EF8
:101CD000FCD17047016821F001010160016821F029
:101CE00010210160016821F400410160416821F484
:101CF0004051416042F28D01C160016841F00C0128
:101D000001601E4988421BD1016841F02001016039
:101D1000016821F040010160016821F010010160BB
:101D2000016821F080010160016821F48071016087
:101D3000016821F040010160016821F001010160AA
:101D40000F49884209D1016A41F0400101620D4901
:101D5000096841F0C0010B4A1160016841F00101BE
:101D6000016000BFC16901F400110029FAD000BF71
:101D7000C16901F480010029FAD07047004C00408D
:101D80000044004008380140F0B504460E461746AE
:101D900000250CE000BFE06900F080000028FAD0C8
:101DA000705D20854FF49670FFF78AFF6D1CBD4271
:101DB000F0D300BFE06900F040000028FAD0E069ED
:101DC00020F04000E061F0BD03B4019841000098AC
:101DD00050EAC12018BF04204A0D18BF40F001008E
:101DE00040F2FF72B2EB515F08BF40F002000128E1
:101DF00008BF052002B070470349086000BF0249D0
:101E000009680029FBD170470000002030B52DED96
:101E1000048B89B02921282000F0B0F800EE100AC8
:101E2000B8EEC00A10EE104A2B212A2000F0A6F8C6
:101E300000EE100AB8EEC00AB0EE409A2D212C2018
:101E400000F09CF800EE100AB8EEC00AF0EE409ADE
:101E5000204600F06DFA41EC180B53EC182B07A14B
:101E600001A8FEF735FA05462A4601A90548FFF7FD
:101E70008BFF09B0BDEC048B30BD0000583D2566DA
:101E80000D0A0000004400403A48806D40F4804054
:101E9000384988650846806B40F48040886308466E
:101EA000806B20F4804088633348006820F0400055
:101EB000314908600846006820F4806008600846E0
:101EC000006820F4004008600846006820F4804064
:101ED0000860081D006820F47060091D08604FF458
:101EE000E0600860081F006820F08000091F08609B
:101EF0000846006820F0010008600846006820F0ED
:101F0000020008600846006840F0180008600A20D7
:101F10001949103108601848006820F4005016492B
:101F20000860081D006820F01000091D0860081FE7
:101F3000006840F40070091F08600846006840F01F
:101F4000040008600846006840F480700860081DBE
:101F5000006840F00800091D08600846006840F469
:101F600080500860081F006840F04000091F0860AA
:101F70007047000000100240003800402DE9F04199
:101F80002DED088B05460C469FED150AB0EE40AAD4
:101F90009FED140AF0EE40AA9FED130A10EE106AAE
:101FA000304600F0C5F941EC190B9FED100B53ECD6
:101FB000102B00F0BFF841EC180B00F089F80BEE85
:101FC000100A2846FFF7BEFC07462046FFF7BAFC7A
:101FD00007EB002000B2BDEC088BBDE8F0810000EB
:101FE00000000C4100008C4100008C42FCA9F1D2A1
:101FF0004D62503FFFF748FDFFF7A4FBFFF7DCFA07
:10200000FFF7E6F94FF47A70FFF7FAFCFFF738FEB6
:1020100006A000F031F80AA000F02EF8FFF7E4FB6C
:1020200010A000F029F800BFFEE700007E7E7E7E53
:102030002048656C6C6F21207E7E7E7E0000000053
:102040003D3D3D205072652D4779726F20496E6984
:102050007469616C697A6174696F6E203D3D3D3DC4
:10206000000000007E7E7E7E20476F6F646279658F
:1020700021207E7E7E7E000030B589B00446224657
:1020800005A101A8FEF724F905462A4601A904483E
:10209000FFF77AFE09B030BD25730D0A000000007D
:1020A0000044004010B500290AD00878002807D065
:1020B00005487844FEF77CFD002801D0002010BDC3
:1020C0000248784410BD0000560400004E04000091
:1020D00021F00042A2F16052B2F5801F01F00043EE
:1020E00028BFD2F17F6C0BD95FEA001C43EAC20221
:1020F00042EB507018BF704728BF20F001007047B6
:10210000B2F5801FBCBF184670474FEA410C1CF562
:10211000001F02D2084600F081B970B500F0B4F893
:1021200000000089FFF7F6BF4FF00040A0F58000E7
:1021300070470000DFF848C170B51CEA111E1EBFD1
:102140001CEA13159EEA0C0F95EA0C0F00F06F8045
:1021500081EA030423EA4C134EEAD47E21EA4C11AF
:1021600041F4801143F48013AE44A1FB024CA0FB68
:102170000365AEF17F7E361955EB0C05A1FB034CD0
:102180004CF10003A0FB021C16EB0C06654153F159
:102190000003094218BF46F0010613F4007F0BD17B
:1021A0004FEA03314FEA0530340341EA155140EA62
:1021B00016506FF003020AE04FEAC3214FEAC52030
:1021C000F40241EA555140EA56506FF0020202EB28
:1021D0002E4201EB025585EACE710AD05FEA440C2B
:1021E00018BF24F0004450F1000041F1000120EA42
:1021F000D47040F2FE7C624500D270BDA84214BF8C
:102200004FF080444FF04044002E08BF0024BEF140
:10221000806FA8BFA1F1C041BDE8704080F282800C
:102220004FF0000001F1C04101F0004170479EEA0B
:102230000C0F0CEA131518BF95EA0C0F06D04FF0DF
:10224000000081EA030E0EF0004170BD00F01CF8A2
:102250008900013E00F007B800F009B84FEA430CCE
:102260005FEA5C5C08D081EA030100F05BB84FEAEA
:10227000410C5FEA5C5CF6D14FF000000149704709
:102280000000FF070000F87F0EF1020E2EF0030E93
:102290005EF8046B364205D4012A43EB030515F5BD
:1022A000001F12D8012841EB010C1CF5001F0CD8AF
:1022B0000ED14FEAD17C15F5001F0CEB4C0C0CF144
:1022C000020C08BF4CEBD37C04E04FF0080C01E09B
:1022D0004FEAD37C0CEB4C0526FA05F606F0070610
:1022E000B6F1040C06D20EEB860CBDE870404CF043
:1022F000010C6047DFE80CF0090B02024FF00041CF
:102300004FF00000A1F5002170BD194610460128CC
:1023100051EB010418BFD4F5001484BF002001F074
:10232000004170BD0808A0F500114FEA3101704767
:1023300043004FEAD30C4FEA3C0C43401FBF400719
:102340000CF1605113F0FE4F70471CF0006F03D189
:1023500000200CF0004170470CF0004343EA50703D
:1023600010B540EACC0000F00EF800BF000000926B
:102370004FEA0001FFF7D6BF4FF000414FF00000D9
:10238000A1F5002170470EF1020E2EF0030E5EF84B
:10239000044B244204D44FEA4102B2F17F4F11D8DA
:1023A0004FEA4003B3F17F4F0CD80ED14FEAD07CF7
:1023B000B2F17F4F0CEB4C0C0CF1020C08BF4CEB54
:1023C000D17C04E04FF0080C01E04FEAD17C0CEB2B
:1023D0004C0324FA03F404F00704B4F1040C06D20D
:1023E0000EEB840CBDE810404CF0010C6047DFE8B8
:1023F0000CF0070802024FF00040A0F5800010BD6D
:102400000846420018BFD2F1807288BF00F0004039
:1024100010BD4FF04070E1EE100A7047FF2141EA15
:10242000D050C0057047FEF728B93031323334350B
:102430003637383941424344454640305800303100
:10244000323334353637383961626364656640301B
:102450007800000002400000000000A00000000022
:1024600005400000000000C8000000000C40000013
:102470000000409C00000000194000000020BCBE8D
:102480000000000034400000BFC91B8E00000004A3
:10249000B5400000504BCFD06607E2CF01000000EE
:1024A0006C4100003E8251AADFEEA734010000001B
:1024B000D9420000DCB5A0E23A301F97FFFFFFFFD2
:1024C000B4450000FD25A0C8E9A3C14FFFFFFFFFF1
:1024D000FF3F00000000008000000000FF3F000000
:1024E00000000080000000002425000800000020FB
:1024F00018000000C40100083C2500081800002056
:1025000060150000E00100081C000000430000000E
:10251000F8FFFFFF0C0000000E0000000F0000009D
:102520002E0000000000000000000000000000007D
:0C2530000000000000000000000000009F
:040000050800018965
:00000001FF
